{
  "_format": "hh-sol-artifact-1",
  "contractName": "MyEpicNFT",
  "sourceName": "contracts/MyEpicNFT.sol",
  "abi": [
    {
      "inputs": [],
      "stateMutability": "nonpayable",
      "type": "constructor"
    },
    {
      "anonymous": false,
      "inputs": [
        {
          "indexed": true,
          "internalType": "address",
          "name": "owner",
          "type": "address"
        },
        {
          "indexed": true,
          "internalType": "address",
          "name": "approved",
          "type": "address"
        },
        {
          "indexed": true,
          "internalType": "uint256",
          "name": "tokenId",
          "type": "uint256"
        }
      ],
      "name": "Approval",
      "type": "event"
    },
    {
      "anonymous": false,
      "inputs": [
        {
          "indexed": true,
          "internalType": "address",
          "name": "owner",
          "type": "address"
        },
        {
          "indexed": true,
          "internalType": "address",
          "name": "operator",
          "type": "address"
        },
        {
          "indexed": false,
          "internalType": "bool",
          "name": "approved",
          "type": "bool"
        }
      ],
      "name": "ApprovalForAll",
      "type": "event"
    },
    {
      "anonymous": false,
      "inputs": [
        {
          "indexed": false,
          "internalType": "address",
          "name": "sender",
          "type": "address"
        },
        {
          "indexed": false,
          "internalType": "uint256",
          "name": "tokenId",
          "type": "uint256"
        }
      ],
      "name": "NewEpicNFTMinted",
      "type": "event"
    },
    {
      "anonymous": false,
      "inputs": [
        {
          "indexed": true,
          "internalType": "address",
          "name": "from",
          "type": "address"
        },
        {
          "indexed": true,
          "internalType": "address",
          "name": "to",
          "type": "address"
        },
        {
          "indexed": true,
          "internalType": "uint256",
          "name": "tokenId",
          "type": "uint256"
        }
      ],
      "name": "Transfer",
      "type": "event"
    },
    {
      "inputs": [
        {
          "internalType": "address",
          "name": "to",
          "type": "address"
        },
        {
          "internalType": "uint256",
          "name": "tokenId",
          "type": "uint256"
        }
      ],
      "name": "approve",
      "outputs": [],
      "stateMutability": "nonpayable",
      "type": "function"
    },
    {
      "inputs": [
        {
          "internalType": "address",
          "name": "owner",
          "type": "address"
        }
      ],
      "name": "balanceOf",
      "outputs": [
        {
          "internalType": "uint256",
          "name": "",
          "type": "uint256"
        }
      ],
      "stateMutability": "view",
      "type": "function"
    },
    {
      "inputs": [
        {
          "internalType": "uint256",
          "name": "tokenId",
          "type": "uint256"
        }
      ],
      "name": "getApproved",
      "outputs": [
        {
          "internalType": "address",
          "name": "",
          "type": "address"
        }
      ],
      "stateMutability": "view",
      "type": "function"
    },
    {
      "inputs": [
        {
          "internalType": "address",
          "name": "owner",
          "type": "address"
        },
        {
          "internalType": "address",
          "name": "operator",
          "type": "address"
        }
      ],
      "name": "isApprovedForAll",
      "outputs": [
        {
          "internalType": "bool",
          "name": "",
          "type": "bool"
        }
      ],
      "stateMutability": "view",
      "type": "function"
    },
    {
      "inputs": [],
      "name": "makeAnEpicNFT",
      "outputs": [],
      "stateMutability": "nonpayable",
      "type": "function"
    },
    {
      "inputs": [],
      "name": "name",
      "outputs": [
        {
          "internalType": "string",
          "name": "",
          "type": "string"
        }
      ],
      "stateMutability": "view",
      "type": "function"
    },
    {
      "inputs": [
        {
          "internalType": "uint256",
          "name": "tokenId",
          "type": "uint256"
        }
      ],
      "name": "ownerOf",
      "outputs": [
        {
          "internalType": "address",
          "name": "",
          "type": "address"
        }
      ],
      "stateMutability": "view",
      "type": "function"
    },
    {
      "inputs": [
        {
          "internalType": "uint256",
          "name": "tokenId",
          "type": "uint256"
        }
      ],
      "name": "pickRandomColor",
      "outputs": [
        {
          "internalType": "string",
          "name": "",
          "type": "string"
        }
      ],
      "stateMutability": "view",
      "type": "function"
    },
    {
      "inputs": [
        {
          "internalType": "uint256",
          "name": "tokenId",
          "type": "uint256"
        }
      ],
      "name": "pickRandomFirstWord",
      "outputs": [
        {
          "internalType": "string",
          "name": "",
          "type": "string"
        }
      ],
      "stateMutability": "view",
      "type": "function"
    },
    {
      "inputs": [
        {
          "internalType": "uint256",
          "name": "tokenId",
          "type": "uint256"
        }
      ],
      "name": "pickRandomSecondWord",
      "outputs": [
        {
          "internalType": "string",
          "name": "",
          "type": "string"
        }
      ],
      "stateMutability": "view",
      "type": "function"
    },
    {
      "inputs": [
        {
          "internalType": "uint256",
          "name": "tokenId",
          "type": "uint256"
        }
      ],
      "name": "pickRandomThirdWord",
      "outputs": [
        {
          "internalType": "string",
          "name": "",
          "type": "string"
        }
      ],
      "stateMutability": "view",
      "type": "function"
    },
    {
      "inputs": [
        {
          "internalType": "address",
          "name": "from",
          "type": "address"
        },
        {
          "internalType": "address",
          "name": "to",
          "type": "address"
        },
        {
          "internalType": "uint256",
          "name": "tokenId",
          "type": "uint256"
        }
      ],
      "name": "safeTransferFrom",
      "outputs": [],
      "stateMutability": "nonpayable",
      "type": "function"
    },
    {
      "inputs": [
        {
          "internalType": "address",
          "name": "from",
          "type": "address"
        },
        {
          "internalType": "address",
          "name": "to",
          "type": "address"
        },
        {
          "internalType": "uint256",
          "name": "tokenId",
          "type": "uint256"
        },
        {
          "internalType": "bytes",
          "name": "_data",
          "type": "bytes"
        }
      ],
      "name": "safeTransferFrom",
      "outputs": [],
      "stateMutability": "nonpayable",
      "type": "function"
    },
    {
      "inputs": [
        {
          "internalType": "address",
          "name": "operator",
          "type": "address"
        },
        {
          "internalType": "bool",
          "name": "approved",
          "type": "bool"
        }
      ],
      "name": "setApprovalForAll",
      "outputs": [],
      "stateMutability": "nonpayable",
      "type": "function"
    },
    {
      "inputs": [
        {
          "internalType": "bytes4",
          "name": "interfaceId",
          "type": "bytes4"
        }
      ],
      "name": "supportsInterface",
      "outputs": [
        {
          "internalType": "bool",
          "name": "",
          "type": "bool"
        }
      ],
      "stateMutability": "view",
      "type": "function"
    },
    {
      "inputs": [],
      "name": "symbol",
      "outputs": [
        {
          "internalType": "string",
          "name": "",
          "type": "string"
        }
      ],
      "stateMutability": "view",
      "type": "function"
    },
    {
      "inputs": [
        {
          "internalType": "uint256",
          "name": "tokenId",
          "type": "uint256"
        }
      ],
      "name": "tokenURI",
      "outputs": [
        {
          "internalType": "string",
          "name": "",
          "type": "string"
        }
      ],
      "stateMutability": "view",
      "type": "function"
    },
    {
      "inputs": [],
      "name": "totalMinted",
      "outputs": [
        {
          "internalType": "uint256",
          "name": "",
          "type": "uint256"
        }
      ],
      "stateMutability": "view",
      "type": "function"
    },
    {
      "inputs": [],
      "name": "totalSupply",
      "outputs": [
        {
          "internalType": "uint256",
          "name": "",
          "type": "uint256"
        }
      ],
      "stateMutability": "view",
      "type": "function"
    },
    {
      "inputs": [
        {
          "internalType": "address",
          "name": "from",
          "type": "address"
        },
        {
          "internalType": "address",
          "name": "to",
          "type": "address"
        },
        {
          "internalType": "uint256",
          "name": "tokenId",
          "type": "uint256"
        }
      ],
      "name": "transferFrom",
      "outputs": [],
      "stateMutability": "nonpayable",
      "type": "function"
    }
  ],
  "bytecode": "0x60806040526000600855603260095560405180610100016040528060d3815260200162004d2160d39139600a90805190602001906200004092919062000e91565b5060405180608001604052806056815260200162004e2c60569139600b90805190602001906200007292919062000e91565b50604051806101e001604052806040518060400160405280600481526020017f457069630000000000000000000000000000000000000000000000000000000081525081526020016040518060400160405280600581526020017f537570657200000000000000000000000000000000000000000000000000000081525081526020016040518060400160405280600a81526020017f53747570656e646f75730000000000000000000000000000000000000000000081525081526020016040518060400160405280600a81526020017f4173746f756e64696e670000000000000000000000000000000000000000000081525081526020016040518060400160405280600781526020017f417765736f6d650000000000000000000000000000000000000000000000000081525081526020016040518060400160405280600a81526020017f52656d61726b61626c650000000000000000000000000000000000000000000081525081526020016040518060400160405280600d81526020017f45787472616f7264696e6172790000000000000000000000000000000000000081525081526020016040518060400160405280600b81526020017f4173746f6e697368696e6700000000000000000000000000000000000000000081525081526020016040518060400160405280600481526020017f4d696e740000000000000000000000000000000000000000000000000000000081525081526020016040518060400160405280600381526020017f526164000000000000000000000000000000000000000000000000000000000081525081526020016040518060400160405280600481526020017f4d696e740000000000000000000000000000000000000000000000000000000081525081526020016040518060400160405280600481526020017f436f6f6c0000000000000000000000000000000000000000000000000000000081525081526020016040518060400160405280600c81526020017f456c65637472696679696e67000000000000000000000000000000000000000081525081526020016040518060400160405280600281526020017f596f00000000000000000000000000000000000000000000000000000000000081525081526020016040518060400160405280600481526020017f5961646100000000000000000000000000000000000000000000000000000000815250815250600c90600f6200040492919062000f22565b50604051806101e001604052806040518060400160405280600781526020017f486f6f636869650000000000000000000000000000000000000000000000000081525081526020016040518060400160405280600381526020017f4c6f77000000000000000000000000000000000000000000000000000000000081525081526020016040518060400160405280600381526020017f4d616e000000000000000000000000000000000000000000000000000000000081525081526020016040518060400160405280600581526020017f4d6f6f707300000000000000000000000000000000000000000000000000000081525081526020016040518060400160405280600681526020017f446f6d61696e000000000000000000000000000000000000000000000000000081525081526020016040518060400160405280600981526020017f5363686d6f6f706965000000000000000000000000000000000000000000000081525081526020016040518060400160405280600881526020017f536572656e69747900000000000000000000000000000000000000000000000081525081526020016040518060400160405280600981526020017f536872696e6b616765000000000000000000000000000000000000000000000081525081526020016040518060400160405280600581526020017f4a696d6d7900000000000000000000000000000000000000000000000000000081525081526020016040518060400160405280600581526020017f557262616e00000000000000000000000000000000000000000000000000000081525081526020016040518060400160405280600481526020017f596164610000000000000000000000000000000000000000000000000000000081525081526020016040518060400160405280600281526020017f596f00000000000000000000000000000000000000000000000000000000000081525081526020016040518060400160405280600881526020017f4d616e646172696e00000000000000000000000000000000000000000000000081525081526020016040518060400160405280600681526020017f446f75626c65000000000000000000000000000000000000000000000000000081525081526020016040518060400160405280600881526020017f4665737469767573000000000000000000000000000000000000000000000000815250815250600d90600f6200079692919062000f22565b50604051806101e001604052806040518060400160405280600481526020017f4d616d610000000000000000000000000000000000000000000000000000000081525081526020016040518060400160405280600681526020017f54616c6b6572000000000000000000000000000000000000000000000000000081525081526020016040518060400160405280600581526020017f48616e647300000000000000000000000000000000000000000000000000000081525081526020016040518060400160405280600381526020017f42726f000000000000000000000000000000000000000000000000000000000081525081526020016040518060400160405280600681526020017f4d6173746572000000000000000000000000000000000000000000000000000081525081526020016040518060400160405280600481526020017f536f75700000000000000000000000000000000000000000000000000000000081525081526020016040518060400160405280600381526020017f4e6f77000000000000000000000000000000000000000000000000000000000081525081526020016040518060400160405280600681526020017f4e65776d616e000000000000000000000000000000000000000000000000000081525081526020016040518060400160405280600581526020017f436f736d6f00000000000000000000000000000000000000000000000000000081525081526020016040518060400160405280600a81526020017f53776974636865726f6f0000000000000000000000000000000000000000000081525081526020016040518060400160405280600881526020017f536f6d627265726f00000000000000000000000000000000000000000000000081525081526020016040518060400160405280600481526020017f596164610000000000000000000000000000000000000000000000000000000081525081526020016040518060400160405280600281526020017f4d6100000000000000000000000000000000000000000000000000000000000081525081526020016040518060400160405280600a81526020017f436172747772696768740000000000000000000000000000000000000000000081525081526020016040518060400160405280600681526020017f4469707065720000000000000000000000000000000000000000000000000000815250815250600e90600f62000b2892919062000f22565b506040518060e001604052806040518060400160405280600781526020017f236565323263630000000000000000000000000000000000000000000000000081525081526020016040518060400160405280600781526020017f236161333337370000000000000000000000000000000000000000000000000081525081526020016040518060400160405280600781526020017f233434323232320000000000000000000000000000000000000000000000000081525081526020016040518060400160405280600781526020017f233636626262620000000000000000000000000000000000000000000000000081525081526020016040518060400160405280600781526020017f233939626231310000000000000000000000000000000000000000000000000081525081526020016040518060400160405280600781526020017f233434393963630000000000000000000000000000000000000000000000000081525081526020016040518060400160405280600781526020017f2331316565666600000000000000000000000000000000000000000000000000815250815250600f90600762000ce192919062000f89565b5034801562000cef57600080fd5b506040518060400160405280600781526020017f4d494e66545973000000000000000000000000000000000000000000000000008152506040518060400160405280600681526020017f4d494e6654590000000000000000000000000000000000000000000000000000815250816000908051906020019062000d7492919062000e91565b50806001908051906020019062000d8d92919062000e91565b50505062000dbf60405180606001604052806038815260200162004df46038913962000dc560201b6200144c1760201c565b620011aa565b62000e658160405160240162000ddc9190620010be565b6040516020818303038152906040527f41304fac000000000000000000000000000000000000000000000000000000007bffffffffffffffffffffffffffffffffffffffffffffffffffffffff19166020820180517bffffffffffffffffffffffffffffffffffffffffffffffffffffffff838183161783525050505062000e6860201b60201c565b50565b60008151905060006a636f6e736f6c652e6c6f679050602083016000808483855afa5050505050565b82805462000e9f9062001134565b90600052602060002090601f01602090048101928262000ec3576000855562000f0f565b82601f1062000ede57805160ff191683800117855562000f0f565b8280016001018555821562000f0f579182015b8281111562000f0e57825182559160200191906001019062000ef1565b5b50905062000f1e919062000ff0565b5090565b82805482825590600052602060002090810192821562000f76579160200282015b8281111562000f7557825182908051906020019062000f6492919062000e91565b509160200191906001019062000f43565b5b50905062000f8591906200100f565b5090565b82805482825590600052602060002090810192821562000fdd579160200282015b8281111562000fdc57825182908051906020019062000fcb92919062000e91565b509160200191906001019062000faa565b5b50905062000fec91906200100f565b5090565b5b808211156200100b57600081600090555060010162000ff1565b5090565b5b8082111562001033576000818162001029919062001037565b5060010162001010565b5090565b508054620010459062001134565b6000825580601f106200105957506200107a565b601f01602090049060005260206000209081019062001079919062000ff0565b5b50565b60006200108a82620010e2565b620010968185620010ed565b9350620010a8818560208601620010fe565b620010b38162001199565b840191505092915050565b60006020820190508181036000830152620010da81846200107d565b905092915050565b600081519050919050565b600082825260208201905092915050565b60005b838110156200111e57808201518184015260208101905062001101565b838111156200112e576000848401525b50505050565b600060028204905060018216806200114d57607f821691505b602082108114156200116457620011636200116a565b5b50919050565b7f4e487b7100000000000000000000000000000000000000000000000000000000600052602260045260246000fd5b6000601f19601f8301169050919050565b613b6780620011ba6000396000f3fe608060405234801561001057600080fd5b506004361061012c5760003560e01c806370a08231116100ad578063b88d4fde11610071578063b88d4fde14610369578063c575757a14610385578063c87b56dd146103b5578063de9d132f146103e5578063e985e9c5146103ef5761012c565b806370a08231146102b157806395d89b41146102e1578063a22cb465146102ff578063a2309ff81461031b578063b187301f146103395761012c565b806323b872dd116100f457806323b872dd146101e95780632de38d681461020557806342842e0e14610235578063514dc8c6146102515780636352211e146102815761012c565b806301ffc9a71461013157806306fdde0314610161578063081812fc1461017f578063095ea7b3146101af57806318160ddd146101cb575b600080fd5b61014b600480360381019061014691906126df565b61041f565b60405161015891906133bd565b60405180910390f35b610169610501565b60405161017691906133d8565b60405180910390f35b61019960048036038101906101949190612731565b610593565b6040516101a6919061332d565b60405180910390f35b6101c960048036038101906101c491906126a3565b610618565b005b6101d3610730565b6040516101e09190613658565b60405180910390f35b61020360048036038101906101fe919061259d565b610736565b005b61021f600480360381019061021a9190612731565b610796565b60405161022c91906133d8565b60405180910390f35b61024f600480360381019061024a919061259d565b6108b4565b005b61026b60048036038101906102669190612731565b6108d4565b60405161027891906133d8565b60405180910390f35b61029b60048036038101906102969190612731565b6109f2565b6040516102a8919061332d565b60405180910390f35b6102cb60048036038101906102c69190612538565b610aa4565b6040516102d89190613658565b60405180910390f35b6102e9610b5c565b6040516102f691906133d8565b60405180910390f35b61031960048036038101906103149190612667565b610bee565b005b610323610d6f565b6040516103309190613658565b60405180910390f35b610353600480360381019061034e9190612731565b610d75565b60405161036091906133d8565b60405180910390f35b610383600480360381019061037e91906125ec565b610e93565b005b61039f600480360381019061039a9190612731565b610ef5565b6040516103ac91906133d8565b60405180910390f35b6103cf60048036038101906103ca9190612731565b611013565b6040516103dc91906133d8565b60405180910390f35b6103ed611165565b005b61040960048036038101906104049190612561565b6113b8565b60405161041691906133bd565b60405180910390f35b60007f80ac58cd000000000000000000000000000000000000000000000000000000007bffffffffffffffffffffffffffffffffffffffffffffffffffffffff1916827bffffffffffffffffffffffffffffffffffffffffffffffffffffffff191614806104ea57507f5b5e139f000000000000000000000000000000000000000000000000000000007bffffffffffffffffffffffffffffffffffffffffffffffffffffffff1916827bffffffffffffffffffffffffffffffffffffffffffffffffffffffff1916145b806104fa57506104f9826114e5565b5b9050919050565b606060008054610510906138f7565b80601f016020809104026020016040519081016040528092919081815260200182805461053c906138f7565b80156105895780601f1061055e57610100808354040283529160200191610589565b820191906000526020600020905b81548152906001019060200180831161056c57829003601f168201915b5050505050905090565b600061059e8261154f565b6105dd576040517f08c379a00000000000000000000000000000000000000000000000000000000081526004016105d4906135b8565b60405180910390fd5b6004600083815260200190815260200160002060009054906101000a900473ffffffffffffffffffffffffffffffffffffffff169050919050565b6000610623826109f2565b90508073ffffffffffffffffffffffffffffffffffffffff168373ffffffffffffffffffffffffffffffffffffffff161415610694576040517f08c379a000000000000000000000000000000000000000000000000000000000815260040161068b90613618565b60405180910390fd5b8073ffffffffffffffffffffffffffffffffffffffff166106b36115bb565b73ffffffffffffffffffffffffffffffffffffffff1614806106e257506106e1816106dc6115bb565b6113b8565b5b610721576040517f08c379a0000000000000000000000000000000000000000000000000000000008152600401610718906134d8565b60405180910390fd5b61072b83836115c3565b505050565b60095481565b6107476107416115bb565b8261167c565b610786576040517f08c379a000000000000000000000000000000000000000000000000000000000815260040161077d90613638565b60405180910390fd5b61079183838361175a565b505050565b606060006107ca6107a6846119b6565b6040516020016107b691906132c7565b604051602081830303815290604052611b63565b9050600c80549050816107dd9190613972565b9050600c8181548110610819577f4e487b7100000000000000000000000000000000000000000000000000000000600052603260045260246000fd5b90600052602060002001805461082e906138f7565b80601f016020809104026020016040519081016040528092919081815260200182805461085a906138f7565b80156108a75780601f1061087c576101008083540402835291602001916108a7565b820191906000526020600020905b81548152906001019060200180831161088a57829003601f168201915b5050505050915050919050565b6108cf83838360405180602001604052806000815250610e93565b505050565b606060006109086108e4846119b6565b6040516020016108f4919061330b565b604051602081830303815290604052611b63565b9050600f805490508161091b9190613972565b9050600f8181548110610957577f4e487b7100000000000000000000000000000000000000000000000000000000600052603260045260246000fd5b90600052602060002001805461096c906138f7565b80601f0160208091040260200160405190810160405280929190818152602001828054610998906138f7565b80156109e55780601f106109ba576101008083540402835291602001916109e5565b820191906000526020600020905b8154815290600101906020018083116109c857829003601f168201915b5050505050915050919050565b6000806002600084815260200190815260200160002060009054906101000a900473ffffffffffffffffffffffffffffffffffffffff169050600073ffffffffffffffffffffffffffffffffffffffff168173ffffffffffffffffffffffffffffffffffffffff161415610a9b576040517f08c379a0000000000000000000000000000000000000000000000000000000008152600401610a9290613518565b60405180910390fd5b80915050919050565b60008073ffffffffffffffffffffffffffffffffffffffff168273ffffffffffffffffffffffffffffffffffffffff161415610b15576040517f08c379a0000000000000000000000000000000000000000000000000000000008152600401610b0c906134f8565b60405180910390fd5b600360008373ffffffffffffffffffffffffffffffffffffffff1673ffffffffffffffffffffffffffffffffffffffff168152602001908152602001600020549050919050565b606060018054610b6b906138f7565b80601f0160208091040260200160405190810160405280929190818152602001828054610b97906138f7565b8015610be45780601f10610bb957610100808354040283529160200191610be4565b820191906000526020600020905b815481529060010190602001808311610bc757829003601f168201915b5050505050905090565b610bf66115bb565b73ffffffffffffffffffffffffffffffffffffffff168273ffffffffffffffffffffffffffffffffffffffff161415610c64576040517f08c379a0000000000000000000000000000000000000000000000000000000008152600401610c5b90613498565b60405180910390fd5b8060056000610c716115bb565b73ffffffffffffffffffffffffffffffffffffffff1673ffffffffffffffffffffffffffffffffffffffff16815260200190815260200160002060008473ffffffffffffffffffffffffffffffffffffffff1673ffffffffffffffffffffffffffffffffffffffff16815260200190815260200160002060006101000a81548160ff0219169083151502179055508173ffffffffffffffffffffffffffffffffffffffff16610d1e6115bb565b73ffffffffffffffffffffffffffffffffffffffff167f17307eab39ab6107e8899845ad3d59bd9653f200f220920489ca2b5937696c3183604051610d6391906133bd565b60405180910390a35050565b60085481565b60606000610da9610d85846119b6565b604051602001610d959190613260565b604051602081830303815290604052611b63565b9050600d8054905081610dbc9190613972565b9050600d8181548110610df8577f4e487b7100000000000000000000000000000000000000000000000000000000600052603260045260246000fd5b906000526020600020018054610e0d906138f7565b80601f0160208091040260200160405190810160405280929190818152602001828054610e39906138f7565b8015610e865780601f10610e5b57610100808354040283529160200191610e86565b820191906000526020600020905b815481529060010190602001808311610e6957829003601f168201915b5050505050915050919050565b610ea4610e9e6115bb565b8361167c565b610ee3576040517f08c379a0000000000000000000000000000000000000000000000000000000008152600401610eda90613638565b60405180910390fd5b610eef84848484611b96565b50505050565b60606000610f29610f05846119b6565b604051602001610f15919061323e565b604051602081830303815290604052611b63565b9050600e8054905081610f3c9190613972565b9050600e8181548110610f78577f4e487b7100000000000000000000000000000000000000000000000000000000600052603260045260246000fd5b906000526020600020018054610f8d906138f7565b80601f0160208091040260200160405190810160405280929190818152602001828054610fb9906138f7565b80156110065780601f10610fdb57610100808354040283529160200191611006565b820191906000526020600020905b815481529060010190602001808311610fe957829003601f168201915b5050505050915050919050565b606061101e8261154f565b61105d576040517f08c379a000000000000000000000000000000000000000000000000000000000815260040161105490613598565b60405180910390fd5b600060066000848152602001908152602001600020805461107d906138f7565b80601f01602080910402602001604051908101604052809291908181526020018280546110a9906138f7565b80156110f65780601f106110cb576101008083540402835291602001916110f6565b820191906000526020600020905b8154815290600101906020018083116110d957829003601f168201915b505050505090506000611107611bf2565b905060008151141561111d578192505050611160565b60008251111561115257808260405160200161113a9291906131a0565b60405160208183030381529060405292505050611160565b61115b84611c09565b925050505b919050565b60006111716007611cb0565b905060095481106111b7576040517f08c379a00000000000000000000000000000000000000000000000000000000081526004016111ae90613558565b60405180910390fd5b60016008546111c6919061372c565b60088190555060006111d782610796565b905060006111e483610d75565b905060006111f184610ef5565b9050600083838360405160200161120a939291906131c4565b60405160208183030381529060405290506000611226866108d4565b90506000600a82600b8560405160200161124394939291906131f5565b604051602081830303815290604052905060006112888461126384611cbe565b604051602001611274929190613282565b604051602081830303815290604052611cbe565b905060008160405160200161129d91906132e9565b60405160208183030381529060405290506112ec6040518060400160405280601581526020017f0a2d2d2d2d2d2d2d2d2d2d2d2d2d2d2d2d2d2d2d2d000000000000000000000081525061144c565b6112f58161144c565b6113336040518060400160405280601581526020017f2d2d2d2d2d2d2d2d2d2d2d2d2d2d2d2d2d2d2d2d0a000000000000000000000081525061144c565b61133d338a611e7c565b6113478982611e9a565b6113516007611f0e565b611374604051806060016040528060258152602001613acd602591398a33611f24565b7febb98688741ffa4c7589bf325de30cf7becb63de567842e1ccdb6cb949fdc82c338a6040516113a5929190613394565b60405180910390a1505050505050505050565b6000600560008473ffffffffffffffffffffffffffffffffffffffff1673ffffffffffffffffffffffffffffffffffffffff16815260200190815260200160002060008373ffffffffffffffffffffffffffffffffffffffff1673ffffffffffffffffffffffffffffffffffffffff16815260200190815260200160002060009054906101000a900460ff16905092915050565b6114e28160405160240161146091906133d8565b6040516020818303038152906040527f41304fac000000000000000000000000000000000000000000000000000000007bffffffffffffffffffffffffffffffffffffffffffffffffffffffff19166020820180517bffffffffffffffffffffffffffffffffffffffffffffffffffffffff8381831617835250505050611fc3565b50565b60007f01ffc9a7000000000000000000000000000000000000000000000000000000007bffffffffffffffffffffffffffffffffffffffffffffffffffffffff1916827bffffffffffffffffffffffffffffffffffffffffffffffffffffffff1916149050919050565b60008073ffffffffffffffffffffffffffffffffffffffff166002600084815260200190815260200160002060009054906101000a900473ffffffffffffffffffffffffffffffffffffffff1673ffffffffffffffffffffffffffffffffffffffff1614159050919050565b600033905090565b816004600083815260200190815260200160002060006101000a81548173ffffffffffffffffffffffffffffffffffffffff021916908373ffffffffffffffffffffffffffffffffffffffff160217905550808273ffffffffffffffffffffffffffffffffffffffff16611636836109f2565b73ffffffffffffffffffffffffffffffffffffffff167f8c5be1e5ebec7d5bd14f71427d1e84f3dd0314c0f7b2291e5b200ac8c7c3b92560405160405180910390a45050565b60006116878261154f565b6116c6576040517f08c379a00000000000000000000000000000000000000000000000000000000081526004016116bd906134b8565b60405180910390fd5b60006116d1836109f2565b90508073ffffffffffffffffffffffffffffffffffffffff168473ffffffffffffffffffffffffffffffffffffffff16148061174057508373ffffffffffffffffffffffffffffffffffffffff1661172884610593565b73ffffffffffffffffffffffffffffffffffffffff16145b80611751575061175081856113b8565b5b91505092915050565b8273ffffffffffffffffffffffffffffffffffffffff1661177a826109f2565b73ffffffffffffffffffffffffffffffffffffffff16146117d0576040517f08c379a00000000000000000000000000000000000000000000000000000000081526004016117c7906135d8565b60405180910390fd5b600073ffffffffffffffffffffffffffffffffffffffff168273ffffffffffffffffffffffffffffffffffffffff161415611840576040517f08c379a000000000000000000000000000000000000000000000000000000000815260040161183790613478565b60405180910390fd5b61184b838383611fec565b6118566000826115c3565b6001600360008573ffffffffffffffffffffffffffffffffffffffff1673ffffffffffffffffffffffffffffffffffffffff16815260200190815260200160002060008282546118a6919061380d565b925050819055506001600360008473ffffffffffffffffffffffffffffffffffffffff1673ffffffffffffffffffffffffffffffffffffffff16815260200190815260200160002060008282546118fd919061372c565b92505081905550816002600083815260200190815260200160002060006101000a81548173ffffffffffffffffffffffffffffffffffffffff021916908373ffffffffffffffffffffffffffffffffffffffff160217905550808273ffffffffffffffffffffffffffffffffffffffff168473ffffffffffffffffffffffffffffffffffffffff167fddf252ad1be2c89b69c2b068fc378daa952ba7f163c4a11628f55a4df523b3ef60405160405180910390a4505050565b606060008214156119fe576040518060400160405280600181526020017f30000000000000000000000000000000000000000000000000000000000000008152509050611b5e565b600082905060005b60008214611a30578080611a1990613929565b915050600a82611a299190613782565b9150611a06565b60008167ffffffffffffffff811115611a72577f4e487b7100000000000000000000000000000000000000000000000000000000600052604160045260246000fd5b6040519080825280601f01601f191660200182016040528015611aa45781602001600182028036833780820191505090505b5090505b60008514611b5757600182611abd919061380d565b9150600a85611acc9190613972565b6030611ad8919061372c565b60f81b818381518110611b14577f4e487b7100000000000000000000000000000000000000000000000000000000600052603260045260246000fd5b60200101907effffffffffffffffffffffffffffffffffffffffffffffffffffffffffffff1916908160001a905350600a85611b509190613782565b9450611aa8565b8093505050505b919050565b600081604051602001611b769190613189565b6040516020818303038152906040528051906020012060001c9050919050565b611ba184848461175a565b611bad84848484611ff1565b611bec576040517f08c379a0000000000000000000000000000000000000000000000000000000008152600401611be390613438565b60405180910390fd5b50505050565b606060405180602001604052806000815250905090565b6060611c148261154f565b611c53576040517f08c379a0000000000000000000000000000000000000000000000000000000008152600401611c4a906135f8565b60405180910390fd5b6000611c5d611bf2565b90506000815111611c7d5760405180602001604052806000815250611ca8565b80611c87846119b6565b604051602001611c989291906131a0565b6040516020818303038152906040525b915050919050565b600081600001549050919050565b60606000825190506000811415611ce75760405180602001604052806000815250915050611e77565b60006003600283611cf8919061372c565b611d029190613782565b6004611d0e91906137b3565b90506000602082611d1f919061372c565b67ffffffffffffffff811115611d5e577f4e487b7100000000000000000000000000000000000000000000000000000000600052604160045260246000fd5b6040519080825280601f01601f191660200182016040528015611d905781602001600182028036833780820191505090505b5090506000604051806060016040528060408152602001613af2604091399050600181016020830160005b86811015611e345760038101905062ffffff818a015116603f8160121c168401518060081b905060ff603f83600c1c1686015116810190508060081b905060ff603f8360061c1686015116810190508060081b905060ff603f831686015116810190508060e01b90508084526004840193505050611dbb565b506003860660018114611e4e5760028114611e5e57611e69565b613d3d60f01b6002830352611e69565b603d60f81b60018303525b508484525050819450505050505b919050565b611e96828260405180602001604052806000815250612188565b5050565b611ea38261154f565b611ee2576040517f08c379a0000000000000000000000000000000000000000000000000000000008152600401611ed990613538565b60405180910390fd5b80600660008481526020019081526020016000209080519060200190611f099291906123c4565b505050565b6001816000016000828254019250508190555050565b611fbe838383604051602401611f3c939291906133fa565b6040516020818303038152906040527fe3849f79000000000000000000000000000000000000000000000000000000007bffffffffffffffffffffffffffffffffffffffffffffffffffffffff19166020820180517bffffffffffffffffffffffffffffffffffffffffffffffffffffffff8381831617835250505050611fc3565b505050565b60008151905060006a636f6e736f6c652e6c6f679050602083016000808483855afa5050505050565b505050565b60006120128473ffffffffffffffffffffffffffffffffffffffff166121e3565b1561217b578373ffffffffffffffffffffffffffffffffffffffff1663150b7a0261203b6115bb565b8786866040518563ffffffff1660e01b815260040161205d9493929190613348565b602060405180830381600087803b15801561207757600080fd5b505af19250505080156120a857506040513d601f19601f820116820180604052508101906120a59190612708565b60015b61212b573d80600081146120d8576040519150601f19603f3d011682016040523d82523d6000602084013e6120dd565b606091505b50600081511415612123576040517f08c379a000000000000000000000000000000000000000000000000000000000815260040161211a90613438565b60405180910390fd5b805181602001fd5b63150b7a0260e01b7bffffffffffffffffffffffffffffffffffffffffffffffffffffffff1916817bffffffffffffffffffffffffffffffffffffffffffffffffffffffff191614915050612180565b600190505b949350505050565b61219283836121f6565b61219f6000848484611ff1565b6121de576040517f08c379a00000000000000000000000000000000000000000000000000000000081526004016121d590613438565b60405180910390fd5b505050565b600080823b905060008111915050919050565b600073ffffffffffffffffffffffffffffffffffffffff168273ffffffffffffffffffffffffffffffffffffffff161415612266576040517f08c379a000000000000000000000000000000000000000000000000000000000815260040161225d90613578565b60405180910390fd5b61226f8161154f565b156122af576040517f08c379a00000000000000000000000000000000000000000000000000000000081526004016122a690613458565b60405180910390fd5b6122bb60008383611fec565b6001600360008473ffffffffffffffffffffffffffffffffffffffff1673ffffffffffffffffffffffffffffffffffffffff168152602001908152602001600020600082825461230b919061372c565b92505081905550816002600083815260200190815260200160002060006101000a81548173ffffffffffffffffffffffffffffffffffffffff021916908373ffffffffffffffffffffffffffffffffffffffff160217905550808273ffffffffffffffffffffffffffffffffffffffff16600073ffffffffffffffffffffffffffffffffffffffff167fddf252ad1be2c89b69c2b068fc378daa952ba7f163c4a11628f55a4df523b3ef60405160405180910390a45050565b8280546123d0906138f7565b90600052602060002090601f0160209004810192826123f25760008555612439565b82601f1061240b57805160ff1916838001178555612439565b82800160010185558215612439579182015b8281111561243857825182559160200191906001019061241d565b5b509050612446919061244a565b5090565b5b8082111561246357600081600090555060010161244b565b5090565b600061247a612475846136a4565b613673565b90508281526020810184848401111561249257600080fd5b61249d8482856138b5565b509392505050565b6000813590506124b481613a70565b92915050565b6000813590506124c981613a87565b92915050565b6000813590506124de81613a9e565b92915050565b6000815190506124f381613a9e565b92915050565b600082601f83011261250a57600080fd5b813561251a848260208601612467565b91505092915050565b60008135905061253281613ab5565b92915050565b60006020828403121561254a57600080fd5b6000612558848285016124a5565b91505092915050565b6000806040838503121561257457600080fd5b6000612582858286016124a5565b9250506020612593858286016124a5565b9150509250929050565b6000806000606084860312156125b257600080fd5b60006125c0868287016124a5565b93505060206125d1868287016124a5565b92505060406125e286828701612523565b9150509250925092565b6000806000806080858703121561260257600080fd5b6000612610878288016124a5565b9450506020612621878288016124a5565b935050604061263287828801612523565b925050606085013567ffffffffffffffff81111561264f57600080fd5b61265b878288016124f9565b91505092959194509250565b6000806040838503121561267a57600080fd5b6000612688858286016124a5565b9250506020612699858286016124ba565b9150509250929050565b600080604083850312156126b657600080fd5b60006126c4858286016124a5565b92505060206126d585828601612523565b9150509250929050565b6000602082840312156126f157600080fd5b60006126ff848285016124cf565b91505092915050565b60006020828403121561271a57600080fd5b6000612728848285016124e4565b91505092915050565b60006020828403121561274357600080fd5b600061275184828501612523565b91505092915050565b61276381613841565b82525050565b61277281613853565b82525050565b6000612783826136e9565b61278d81856136ff565b935061279d8185602086016138c4565b6127a681613a5f565b840191505092915050565b60006127bc826136f4565b6127c68185613710565b93506127d68185602086016138c4565b6127df81613a5f565b840191505092915050565b60006127f5826136f4565b6127ff8185613721565b935061280f8185602086016138c4565b80840191505092915050565b60008154612828816138f7565b6128328186613721565b9450600182166000811461284d576001811461285e57612891565b60ff19831686528186019350612891565b612867856136d4565b60005b838110156128895781548189015260018201915060208101905061286a565b838801955050505b50505092915050565b60006128a7603283613710565b91507f4552433732313a207472616e7366657220746f206e6f6e20455243373231526560008301527f63656976657220696d706c656d656e74657200000000000000000000000000006020830152604082019050919050565b600061290d601c83613710565b91507f4552433732313a20746f6b656e20616c7265616479206d696e746564000000006000830152602082019050919050565b600061294d600a83613721565b91507f54484952445f574f5244000000000000000000000000000000000000000000006000830152600a82019050919050565b600061298d602483613710565b91507f4552433732313a207472616e7366657220746f20746865207a65726f2061646460008301527f72657373000000000000000000000000000000000000000000000000000000006020830152604082019050919050565b60006129f3601983613710565b91507f4552433732313a20617070726f766520746f2063616c6c6572000000000000006000830152602082019050919050565b6000612a33600b83613721565b91507f5345434f4e445f574f52440000000000000000000000000000000000000000006000830152600b82019050919050565b6000612a73602c83613710565b91507f4552433732313a206f70657261746f7220717565727920666f72206e6f6e657860008301527f697374656e7420746f6b656e00000000000000000000000000000000000000006020830152604082019050919050565b6000612ad9600d83613721565b91507f3c2f746578743e3c2f7376673e000000000000000000000000000000000000006000830152600d82019050919050565b6000612b19603883613710565b91507f4552433732313a20617070726f76652063616c6c6572206973206e6f74206f7760008301527f6e6572206e6f7220617070726f76656420666f7220616c6c00000000000000006020830152604082019050919050565b6000612b7f602a83613710565b91507f4552433732313a2062616c616e636520717565727920666f7220746865207a6560008301527f726f2061646472657373000000000000000000000000000000000000000000006020830152604082019050919050565b6000612be5602983613710565b91507f4552433732313a206f776e657220717565727920666f72206e6f6e657869737460008301527f656e7420746f6b656e00000000000000000000000000000000000000000000006020830152604082019050919050565b6000612c4b602e83613710565b91507f45524337323155524953746f726167653a2055524920736574206f66206e6f6e60008301527f6578697374656e7420746f6b656e0000000000000000000000000000000000006020830152604082019050919050565b6000612cb1601083613710565b91507f536f7272792c20736f6c64206f75742e000000000000000000000000000000006000830152602082019050919050565b6000612cf1600283613721565b91507f227d0000000000000000000000000000000000000000000000000000000000006000830152600282019050919050565b6000612d31602083613710565b91507f4552433732313a206d696e7420746f20746865207a65726f20616464726573736000830152602082019050919050565b6000612d71603183613710565b91507f45524337323155524953746f726167653a2055524920717565727920666f722060008301527f6e6f6e6578697374656e7420746f6b656e0000000000000000000000000000006020830152604082019050919050565b6000612dd7602c83613710565b91507f4552433732313a20617070726f76656420717565727920666f72206e6f6e657860008301527f697374656e7420746f6b656e00000000000000000000000000000000000000006020830152604082019050919050565b6000612e3d606a83613721565b91507f222c20226465736372697074696f6e223a20224120686967686c79206163636c60008301527f61696d656420636f6c6c656374696f6e206f66204d494e66545920737175617260208301527f65732e222c2022696d616765223a2022646174613a696d6167652f7376672b7860408301527f6d6c3b6261736536342c000000000000000000000000000000000000000000006060830152606a82019050919050565b6000612eef602983613710565b91507f4552433732313a207472616e73666572206f6620746f6b656e2074686174206960008301527f73206e6f74206f776e00000000000000000000000000000000000000000000006020830152604082019050919050565b6000612f55602f83613710565b91507f4552433732314d657461646174613a2055524920717565727920666f72206e6f60008301527f6e6578697374656e7420746f6b656e00000000000000000000000000000000006020830152604082019050919050565b6000612fbb600a83613721565b91507f7b226e616d65223a2022000000000000000000000000000000000000000000006000830152600a82019050919050565b6000612ffb602183613710565b91507f4552433732313a20617070726f76616c20746f2063757272656e74206f776e6560008301527f72000000000000000000000000000000000000000000000000000000000000006020830152604082019050919050565b6000613061600a83613721565b91507f46495253545f574f5244000000000000000000000000000000000000000000006000830152600a82019050919050565b60006130a1601d83613721565b91507f646174613a6170706c69636174696f6e2f6a736f6e3b6261736536342c0000006000830152601d82019050919050565b60006130e1603183613710565b91507f4552433732313a207472616e736665722063616c6c6572206973206e6f74206f60008301527f776e6572206e6f7220617070726f7665640000000000000000000000000000006020830152604082019050919050565b6000613147600583613721565b91507f434f4c4f520000000000000000000000000000000000000000000000000000006000830152600582019050919050565b613183816138ab565b82525050565b600061319582846127ea565b915081905092915050565b60006131ac82856127ea565b91506131b882846127ea565b91508190509392505050565b60006131d082866127ea565b91506131dc82856127ea565b91506131e882846127ea565b9150819050949350505050565b6000613201828761281b565b915061320d82866127ea565b9150613219828561281b565b915061322582846127ea565b915061323082612acc565b915081905095945050505050565b600061324982612940565b915061325582846127ea565b915081905092915050565b600061326b82612a26565b915061327782846127ea565b915081905092915050565b600061328d82612fae565b915061329982856127ea565b91506132a482612e30565b91506132b082846127ea565b91506132bb82612ce4565b91508190509392505050565b60006132d282613054565b91506132de82846127ea565b915081905092915050565b60006132f482613094565b915061330082846127ea565b915081905092915050565b60006133168261313a565b915061332282846127ea565b915081905092915050565b6000602082019050613342600083018461275a565b92915050565b600060808201905061335d600083018761275a565b61336a602083018661275a565b613377604083018561317a565b81810360608301526133898184612778565b905095945050505050565b60006040820190506133a9600083018561275a565b6133b6602083018461317a565b9392505050565b60006020820190506133d26000830184612769565b92915050565b600060208201905081810360008301526133f281846127b1565b905092915050565b6000606082019050818103600083015261341481866127b1565b9050613423602083018561317a565b613430604083018461275a565b949350505050565b600060208201905081810360008301526134518161289a565b9050919050565b6000602082019050818103600083015261347181612900565b9050919050565b6000602082019050818103600083015261349181612980565b9050919050565b600060208201905081810360008301526134b1816129e6565b9050919050565b600060208201905081810360008301526134d181612a66565b9050919050565b600060208201905081810360008301526134f181612b0c565b9050919050565b6000602082019050818103600083015261351181612b72565b9050919050565b6000602082019050818103600083015261353181612bd8565b9050919050565b6000602082019050818103600083015261355181612c3e565b9050919050565b6000602082019050818103600083015261357181612ca4565b9050919050565b6000602082019050818103600083015261359181612d24565b9050919050565b600060208201905081810360008301526135b181612d64565b9050919050565b600060208201905081810360008301526135d181612dca565b9050919050565b600060208201905081810360008301526135f181612ee2565b9050919050565b6000602082019050818103600083015261361181612f48565b9050919050565b6000602082019050818103600083015261363181612fee565b9050919050565b60006020820190508181036000830152613651816130d4565b9050919050565b600060208201905061366d600083018461317a565b92915050565b6000604051905081810181811067ffffffffffffffff8211171561369a57613699613a30565b5b8060405250919050565b600067ffffffffffffffff8211156136bf576136be613a30565b5b601f19601f8301169050602081019050919050565b60008190508160005260206000209050919050565b600081519050919050565b600081519050919050565b600082825260208201905092915050565b600082825260208201905092915050565b600081905092915050565b6000613737826138ab565b9150613742836138ab565b9250827fffffffffffffffffffffffffffffffffffffffffffffffffffffffffffffffff03821115613777576137766139a3565b5b828201905092915050565b600061378d826138ab565b9150613798836138ab565b9250826137a8576137a76139d2565b5b828204905092915050565b60006137be826138ab565b91506137c9836138ab565b9250817fffffffffffffffffffffffffffffffffffffffffffffffffffffffffffffffff0483118215151615613802576138016139a3565b5b828202905092915050565b6000613818826138ab565b9150613823836138ab565b925082821015613836576138356139a3565b5b828203905092915050565b600061384c8261388b565b9050919050565b60008115159050919050565b60007fffffffff0000000000000000000000000000000000000000000000000000000082169050919050565b600073ffffffffffffffffffffffffffffffffffffffff82169050919050565b6000819050919050565b82818337600083830152505050565b60005b838110156138e25780820151818401526020810190506138c7565b838111156138f1576000848401525b50505050565b6000600282049050600182168061390f57607f821691505b6020821081141561392357613922613a01565b5b50919050565b6000613934826138ab565b91507fffffffffffffffffffffffffffffffffffffffffffffffffffffffffffffffff821415613967576139666139a3565b5b600182019050919050565b600061397d826138ab565b9150613988836138ab565b925082613998576139976139d2565b5b828206905092915050565b7f4e487b7100000000000000000000000000000000000000000000000000000000600052601160045260246000fd5b7f4e487b7100000000000000000000000000000000000000000000000000000000600052601260045260246000fd5b7f4e487b7100000000000000000000000000000000000000000000000000000000600052602260045260246000fd5b7f4e487b7100000000000000000000000000000000000000000000000000000000600052604160045260246000fd5b6000601f19601f8301169050919050565b613a7981613841565b8114613a8457600080fd5b50565b613a9081613853565b8114613a9b57600080fd5b50565b613aa78161385f565b8114613ab257600080fd5b50565b613abe816138ab565b8114613ac957600080fd5b5056fe416e204e465420772f20494420257320686173206265656e206d696e74656420746f2025734142434445464748494a4b4c4d4e4f505152535455565758595a6162636465666768696a6b6c6d6e6f707172737475767778797a303132333435363738392b2fa2646970667358221220fc5267a9e40f862f95af86ddc1cc262d254b6f106dc98f747091ed16fd66688364736f6c634300080000333c73766720786d6c6e733d27687474703a2f2f7777772e77332e6f72672f323030302f73766727207072657365727665417370656374526174696f3d27784d696e594d696e206d656574272076696577426f783d273020302033353020333530273e3c7374796c653e2e62617365207b2066696c6c3a2077686974653b20666f6e742d66616d696c793a2073657269663b20666f6e742d73697a653a20323470783b207d3c2f7374796c653e3c726563742077696474683d273130302527206865696768743d2731303025272066696c6c3d274927766520676f7420616e20616e73776572696e67206d616368696e652074686174276c6c2074616c6b20746f20796f752e20576f616821272f3e3c7465787420783d273530252720793d273530252720636c6173733d27626173652720646f6d696e616e742d626173656c696e653d276d6964646c652720746578742d616e63686f723d276d6964646c65273e",
  "linkReferences": {},
  "deployedLinkReferences": {}
}